:1000000033C000004CC000004AC0000048C00000DF
:1000100046C0000044C0000042C0000040C00000D4
:100020003EC000003CC000003AC0000038C00000E4
:1000300036C0000034C0000032C0000030C00000F4
:100040002EC000002CC000002AC0000028C0000004
:1000500026C0000034C0000022C0000020C0000004
:100060001EC000001CC0000011241FBECFEFD8E04E
:10007000DEBFCDBF11E0A0E0B1E0E0ECF1E002C0F6
:1000800005900D92A230B107D9F721E0A2E0B1E0CE
:1000900001C01D92A430B207E1F766D08FC0B0CF87
:1000A000E0ECF0E0208125FFFDCF9093C600E0EC6E
:1000B000F0E0908195FFFDCF8093C60008951F92D8
:1000C0000F920FB60F9211242F933F934F935F938C
:1000D0006F938F939F93EF93FF9360910001ECE7F1
:1000E000F0E0808130812081908141E050E002C0C9
:1000F000440F551F6A95E2F7682F6170832F827055
:10010000862B2470822B9870892B90E04817590712
:1001100041F480917800909179009093030180934D
:100120000201FF91EF919F918F916F915F914F919C
:100130003F912F910F900FBE0F901F901895309107
:100140000001ECE7F0E0208181E090E002C0880F40
:10015000991F3A95E2F78064822B8083EAE7F0E00A
:100160008081886480830895229A87E690E0909346
:10017000C5008093C400E2ECF0E08081866080835B
:10018000E1ECF0E0808188608083EAE7F0E0808144
:10019000876080838081806880837894D0DF8091BD
:1001A0000201909103017CDF2FEF81EE94E021505A
:1001B00080409040E1F700C00000F0CFF894FFCFFE
:0201C00002003B
:00000001FF
