:1000000033C000004CC000004AC0000048C00000DF
:1000100046C0000044C0000042C0000040C00000D4
:100020003EC000003CC000003AC0000038C00000E4
:1000300036C0000034C0000032C0000030C00000F4
:100040002EC000002CC000002AC0000028C0000004
:1000500026C0000079C0000022C0000020C00000BF
:100060001EC000001CC0000011241FBECFEFD8E04E
:10007000DEBFCDBF11E0A0E0B1E0ECE6F2E002C0EF
:1000800005900D92A230B107D9F721E0A2E0B1E0CE
:1000900001C01D92A330B207E1F79ED0E5C0B0CFFA
:1000A0001092C50087E68093C40086E08093C2006A
:1000B00088E08093C1000895E0ECF0E0908195FF26
:1000C000FDCF8093C6000895CF93DF93EC01888124
:1000D000882329F02196F0DF89918111FCCFDF91EF
:1000E000CF910895CF93DF93CDB7DEB72A970FB6A0
:1000F000F894DEBF0FBECDBF4AE0BE016F5F7F4FF9
:1001000080D0CE010196E0DF8AE0D6DF2A960FB6D6
:10011000F894DEBF0FBECDBFDF91CF91089530912F
:100120000001ECE7F0E0208181E090E002C0880F60
:10013000991F3A95E2F78064822B8083EAE7F0E02A
:1001400080818864808308951F920F920FB60F926A
:1001500011242F933F934F935F936F937F938F93CC
:100160009F93AF93BF93EF93FF9360910001ECE7F0
:10017000F0E0808130812081908141E050E002C038
:10018000440F551F6A95E2F7682F6170832F8270C4
:10019000862B2470822B9870892B90E04817590782
:1001A00051F48091780090917900809302018091C0
:1001B000020190E097DFFF91EF91BF91AF919F9186
:1001C0008F917F916F915F914F913F912F910F9000
:1001D0000FBE0F901F90189563DF7894EAE7F0E068
:1001E00080818760808380818068808398DF2FEFA3
:1001F00089E698E1215080409040E1F700C000007E
:10020000F5CFBB274A3031F4992322F4BDE2909513
:1002100081959F4F01C0BB27FB015527AA27880F57
:10022000991FAA1FA41710F0A41B83955051B9F76A
:10023000A05DAA3308F0A95DA193009779F7B111E9
:10024000B1931192CB0100C0DC01FC01672F7191C9
:100250007723E1F7329704C07C916D9370836291AC
:0C026000AE17BF07C8F30895F894FFCF55
:02026C0002008E
:00000001FF
