:1000000033C0000044C0000042C0000040C00000F7
:100010003EC000003CC000003AC0000038C00000F4
:1000200036C0000034C0000032C0000030C0000004
:100030002EC000002CC000002AC0000028C0000014
:1000400026C0000024C0000022C0000020C0000024
:100050001EC000001CC000001AC0000018C0000034
:1000600016C0000014C0000011241FBECFEFD8E05E
:10007000DEBFCDBF11E0A0E0B1E0E6E2F1E002C0FA
:1000800005900D92A831B107D9F724D04AC0B8CF56
:100090001092C50087E68093C40086E08093C2007A
:1000A00088E08093C1000895E0ECF0E0908195FF36
:1000B000FDCF8093C6000895CF93DF93EC01888134
:1000C000882329F02196F0DF89918111FCCFDF91FF
:1000D000CF910895DDDFEBE7F0E0808180648083DD
:1000E000EAE7F0E080818F778083ECE7F0E08081C1
:1000F000836C808380B7806480BF00B605FE04C037
:1001000080E091E0D9DF03C08CE091E0D5DF2FEFF4
:1001100089E698E1215080409040E1F700C000005E
:06012000ECCFF894FFCFC4
:100126004973706F6420312E31560A00497A6E6128
:080136006420312E31560A004D
:00000001FF
