:1000000033C0000041C000003FC000003DC0000000
:100010003BC0000039C0000037C0000035C0000000
:1000200033C0000031C000002FC000002DC0000010
:100030002BC0000029C0000027C0000025C0000020
:1000400023C0000021C000001FC000001DC0000030
:100050001BC0000019C0000017C0000036C000001F
:1000600013C0000011C0000011241FBECFEFD8E064
:10007000DEBFCDBF21E0A0E0B1E001C01D92A13004
:10008000B207E1F737D03EC0BBCF1092C50087E67C
:100090008093C40086E08093C20088E08093C10012
:1000A000089580910001813029F49BB180E1892776
:1000B0008BB901C05C982FEF81EE94E02150804015
:1000C0009040E1F700C0000008951F920F920FB614
:1000D0000F9211248F9300B605FE04C081E0809337
:1000E000000102C0109200018F910F900FBE0F907F
:1000F0001F901895CADF7894549A80B7886080BFA3
:08010000D0DFFECFF894FFCF21
:00000001FF
