:1000000033C000008DC00000D0C0000049C0000017
:1000100047C0000045C0000043C0000041C00000D0
:100020003FC000003DC000003BC0000039C00000E0
:1000300037C0000035C000002CC1000031C00000F6
:100040002FC000002DC000002BC0000029C0000000
:1000500027C0000025C0000023C0000021C0000010
:100060001FC000001DC0000011241FBECFEFD8E04C
:10007000DEBFCDBF11E0A0E0B1E0EAEBF0E102C0ED
:1000800005900D92AC32B107D9F721E0ACE2B1E0B6
:1000900001C01D92AB37B207E1F7EAD50C945B08BB
:1000A000AFCF1092C50087E68093C40086E08093AE
:1000B000C20088E08093C1000895E0ECF0E09081F8
:1000C00095FFFDCF8093C6000895CF93DF93EC0199
:1000D0008881882329F02196F0DF89918111FCCF56
:1000E000DF91CF910895CF93DF93CDB7DEB72A97F5
:1000F0000FB6F894DEBF0FBECDBFDC01CB014AE0E6
:10010000BE016F5F7F4FA4D7CE010196DEDF2A9636
:100110000FB6F894DEBF0FBECDBFDF91CF9108952B
:100120001F920F920FB60F9211248F939F93AF934C
:10013000BF9390917101809172019817A1F0809105
:10014000690190916A01A0916B01B0916C010197D6
:10015000A109B1098093690190936A01A0936B0191
:10016000B0936C0113C08091690190916A01A091D4
:100170006B01B0916C010196A11DB11D80936901C5
:1001800090936A01A0936B01B0936C0189B182FBDB
:10019000882780F980937101BF91AF919F918F91D2
:1001A0000F900FBE0F901F9018951F920F920FB6D1
:1001B0000F9211248F939F93AF93BF9389B183FBC9
:1001C000882780F98093720190917101809172016A
:1001D0009817A1F08091690190916A01A0916B013B
:1001E000B0916C010197A109B109809369019093C5
:1001F0006A01A0936B01B0936C0113C080916901F7
:1002000090916A01A0916B01B0916C010196A11DC2
:10021000B11D8093690190936A01A0936B01B09323
:100220006C01BF91AF919F918F910F900FBE0F9076
:100230001F90189552985398E9E6F0E08081856008
:1002400080838DB383608DBB7894089584B186607C
:1002500084B9E1E8F0E0808181608083E0E8F0E04B
:100260008081806A8083808183608083089585B5E2
:10027000836085BDEEE6F0E080818260808385B595
:10028000826085BD84B5806484BD8AEF87BD789423
:1002900008951F920F920FB60F9211242F923F9242
:1002A0004F925F926F927F928F929F92AF92BF9286
:1002B000CF92DF92EF92FF920F931F932F933F9372
:1002C0004F935F936F937F938F939F93AF93BF935E
:1002D000EF93FF93CF93DF93CDB7DEB76C97DEBF7D
:1002E000CDBF20915D0130915E0140915F01509141
:1002F0006001609161017091620180916301909150
:100300006401A1E04AD620935D0130935E014093E1
:100310005F0150936001609361017093620180936B
:1003200063019093640120915D0130915E014091E1
:100330005F01509160016091610170916201809153
:10034000630190916401A0900001B0900101C09000
:100350000201D0900301E0900401F09005010091AA
:100360000601109107016BD5A0E035D609F0FEC05B
:1003700080902F0190903001209118013091190147
:1003800040911A0150911B0160911C0170911D0157
:1003900080911E0190911F01A0900801B090090169
:1003A000C0900A01D0900B01E0900C01F0900D017B
:1003B00000910E0110910F01E92DEE0FEE0BE98374
:1003C00015D5A22EB32EC42ED52EE62EF72E082F2D
:1003D000192F282D392D4981542F642F742F842FE4
:1003E000942FF0D509F06AC02091100130911101CD
:1003F0004091120150911301609114017091150107
:100400008091160190911701A0901801B0901901E8
:10041000C0901A01D0901B01E0901C01F0901D01CA
:1004200000911E0110911F01809008019090090118
:10043000F0910A01FD83E0910B01E983B0910C0179
:10044000A0910D01F0910E01E0910F01B2D5A82C01
:10045000B92CCD80D980EB2EFA2E0F2F1E2FC6D4AB
:10046000822F932F909332018093310120911001BC
:1004700030911101409112015091130160911401CA
:10048000709115018091160190911701A0900801BB
:10049000B0900901C0900A01D0900B01E0900C01CE
:1004A000F0900D0100910E0110910F019FD4822F49
:1004B000932F9093300180932F0158C02091180101
:1004C0003091190140911A0150911B0160911C015A
:1004D00070911D0180911E0190911F01A090080153
:1004E000B0900901C0900A01D0900B01E0900C017E
:1004F000F0900D0100910E0110910F01E0912F017C
:10050000F0913001FA83E98371D4822E932E2981F0
:100510003A81821A930A909232018092310120919D
:1005200018013091190140911A0150911B016091FD
:100530001C0170911D0180911E0190911F01A090DE
:100540000801B0900901C0900A01D0900B01E09021
:100550000C01F0900D0100910E0110910F0146D495
:10056000822F932F9093300180932F0120915D0172
:1005700030915E0140915F01509160016091610195
:100580007091620180916301909164010F2EFAE0F5
:10059000AF2EF02DB12CC12CD12CE12CF12C00E090
:1005A00010E04DD4A0E017D519F481E080932C0120
:1005B00020915D0130915E0140915F015091600199
:1005C0006091610170916201809163019091640179
:1005D0000F2EFAE0AF2EF02DB12CC12CD12CE12C36
:1005E000F12C00E010E02BD4A0E0F5D409F017C303
:1005F0004091690150916A0160916B0170916C01A9
:100600008091650190916601A0916701B0916801A8
:100610009A01AB01281B390B4A0B5B0BA8EEB3E028
:1006200088D32AE030E040E050E067D330932E01D9
:1006300020932D01209131013091320180912D01C3
:1006400090912E01281B390B832F880F880B209344
:100650005501309356018093570180935801809340
:10066000590180935A0180935B0180935C01209132
:1006700055013091560140915701509158016091B8
:10068000590170915A0180915B0190915C01A09099
:100690004501B0904601C0904701D0904801E090DC
:1006A0004901F0904A0100914B0110914C016CD42A
:1006B00020934501309346014093470150934801F0
:1006C0006093490170934A0180934B0190934C01D0
:1006D0002091550130915601409157015091580198
:1006E0006091590170915A0180915B0190915C0178
:1006F000A0904D01B0904E01C0904F01D09050019C
:10070000E0905101F0905201009153011091540179
:1007100050D420933D0130933E0140933F015093CC
:100720004001609341017093420180934301909393
:1007300044018091770190917801A0917901B09165
:100740007A01A0905501B0905601C0905701D09009
:100750005801E0905901F0905A0100915B0110910D
:100760005C012091730130917401409175015091A9
:10077000760129833A834B835C8330904501209036
:100780004601309147013987409148014A8780905E
:10079000490190904A0150914B015C8FE0914C01CE
:1007A000EB8F20916D0130916E0140916F0150915E
:1007B00070012D833E834F83588730913D013B87E5
:1007C00040913E014C8750913F015D87E09140018F
:1007D000EE87F0914101FF8720914201288B3091F3
:1007E0004301398B409144014A8B2C013D01770C28
:1007F0004408542C3201282F392F4A2F5B2F642DA7
:10080000742D842D942D9FD22B8B3C8B4D8B5E8B26
:100810006F8B788F898F9A8F49805A806B807C800C
:10082000770C4408542C3201A32CB22CC984DA84EE
:10083000E82CF92C0C8D1B8D29813A814B815C8130
:10084000642D742D842D942D7ED2A22EB32EC42E11
:10085000D52EE62EF72E082F192F2B893C894D898E
:100860005E896F89788D898D9A8D8ED3298339879A
:10087000242E852E962E7B8B8A87392E4D805E8086
:100880006F807884770C4408542C3201AB84BC848C
:10089000CD84DE84EF84F88809891A892D813E8110
:1008A0004F815885642D742D842D942D4CD2A22E09
:1008B000B32EC42ED52EE62EF72E082F192F298100
:1008C0003985422D582D692D7B898A85932D5CD3DE
:1008D000209335013093360140933701509338010E
:1008E0006093390170933A0180933B0190933C01EE
:1008F00020913501309136014091370150913801F6
:100900006091390170913A0180913B0190913C01D5
:100910000F2EF5E1AF2EF02DB12CC12CD12CE12CF6
:10092000F12C00E010E062D22093350130933601C3
:1009300040933701509338016093390170933A0125
:1009400080933B0190933C01209135013091360119
:1009500040913701509138016091390170913A010D
:1009600080913B0190913C01A0E035D309F00CF45B
:1009700083C020913501309136014091370150916B
:1009800038016091390170913A0180913B01909159
:100990003C01245D3E4F4F4F5F4F6F4F7F4F8F4F56
:1009A0009F4F209335013093360140933701509388
:1009B00038016093390170933A0180933B01909321
:1009C0003C01209135013091360140913701509121
:1009D00038016091390170913A0180913B01909109
:1009E0003C01A0902001B0902101C0902201D09044
:1009F0002301E0902401F09025010091260110913F
:100A00002701E0D2A9F0A4F090912001809121016A
:100A10002091220120912301209124012091250180
:100A20002091260120912701282F892F922F13C072
:100A30009091350180913601209137012091380144
:100A40002091390120913A0120913B0120913C01F4
:100A5000282F892F922F9093340180933301809116
:100A60003301909134019093890080938800109213
:100A70008B0010928A00A3C020913501309136017D
:100A800040913701509138016091390170913A01DC
:100A900080913B0190913C012C5231404109510918
:100AA000610971098109910920933501309336015B
:100AB00040933701509338016093390170933A01A4
:100AC00080933B0190933C01209135013091360198
:100AD00040913701509138016091390170913A018C
:100AE00080913B0190913C0108D2209335013093D5
:100AF0003601409337015093380160933901709368
:100B00003A0180933B0190933C0120913501309153
:100B1000360140913701509138016091390170914F
:100B20003A0180913B0190913C01A0902001B0904E
:100B30002101C0902201D0902301E0902401F09087
:100B4000250100912601109127013CD2A9F0A4F0C3
:100B50009091200180912101209122012091230177
:100B60002091240120912501209126012091270127
:100B7000282F892F922F13C0909135018091360133
:100B800020913701209138012091390120913A01BB
:100B900020913B0120913C01282F892F922F909387
:100BA000340180933301809133019091340190930B
:100BB0008B0080938A0010928900109288007091B7
:100BC0005501609156015091570140915801309163
:100BD000590120915A0190915B0180915C017093C1
:100BE0004D0160934E0150934F014093500130935B
:100BF00051012093520190935301809354018091AD
:100C0000690190916A01A0916B01B0916C01809390
:100C1000650190936601A0936701B09368016C969B
:100C20000FB6F894DEBF0FBECDBFDF91CF91FF911D
:100C3000EF91BF91AF919F918F917F916F915F9154
:100C40004F913F912F911F910F91FF90EF90DF9067
:100C5000CF90BF90AF909F908F907F906F905F905C
:100C60004F903F902F900F900FBE0F901F901895B0
:100C700018DAE0DAEBDAFBDA8CE090E0A0E0B0E042
:100C80008093770190937801A0937901B0937A01D2
:100C900084E090E0A0E0B0E0809373019093740151
:100CA000A0937501B093760187E090E0A0E0B0E0FA
:100CB00080936D0190936E01A0936F01B0937001CA
:100CC00080912C018823E1F3609131017091320110
:100CD000072E000C880B990B06DA88E291E0F5D913
:100CE00060912D0170912E01072E000C880B990B3D
:100CF000FAD98AE291E0E9D9E3CF052E97FB16F401
:100D000000940FD057FD05D072D107FC02D046F4F5
:100D100008C050954095309521953F4F4F4F5F4FFC
:100D2000089590958095709561957F4F8F4F9F4F57
:100D300008957FD1A59F900DB49F900DA49F800D25
:100D4000911D11240895DF93CF931F930F939A9DC4
:100D5000F02D219FF00D8B9DF00D8A9DE02DF10D62
:100D6000039FF00D029FE00DF11D4E9DE00DF11D62
:100D70005E9DF00D4F9DF00D7F936F93BF92AF92EC
:100D80005F934F93D50155D18B01AC01D70151D160
:100D9000EB01E80FF91FD6011FD02F913F91D6012B
:100DA00048D1C60FD71FE81FF91FAF91BF9114D0CC
:100DB0002F913F913ED1C60FD71FE81FF91FD601D3
:100DC00038D1E60FF71F9801BE01CF0111240F9112
:100DD0001F91CF91DF9108952CD1460F571FC81F47
:100DE000D91F08F431960895689401C0E894F92F4A
:100DF000F12B0AF027C0A0E0B0E0E0E0F7E093C0FC
:100E0000092E05941AF479D0112392F4F0E80F26F4
:100E1000FFEFE094F09400951095B094C094D094B6
:100E2000A194BF0ACF0ADF0AEF0AFF0A0F0B1F0BBC
:100E300013D007FC62D0CDB7DEB7ECE090C0689469
:100E400001C0E8948F929F92CF93DF9305D0DF91FA
:100E5000CF919F908F90089588249924F401E40104
:100E6000B0E49F93AA279A158B049C04ED05FE0518
:100E7000CF05D007A10798F4AD2FDC2FCF2FFE2F81
:100E8000E92D982C892E982F872F762F652F542F98
:100E9000432F322F2227B85031F7BF9127C01B2E86
:100EA000BF91BB27220F331F441F551F661F771F9B
:100EB000881F991F881C991CEE1FFF1FCC1FDD1F68
:100EC000AA1FBB1F8A149B04EC05FD05CE05DF0598
:100ED000A007B10748F08A189B08EC09FD09CE0964
:100EE000DF09A00BB10B21601A94E1F62EF49401F6
:100EF000AF01BE01CD01000C0895609570958095FD
:100F0000909530954095509521953F4F4F4F5F4FAD
:100F10006F4F7F4F8F4F9F4F08952F923F924F9269
:100F20005F926F927F928F929F92AF92BF92CF9279
:100F3000DF92EF92FF920F931F93CF93DF93CDB782
:100F4000DEB7CA1BDB0B0FB6F894DEBF0FBECDBFFA
:100F500009942A88398848885F846E847D848C84CB
:100F60009B84AA84B984C884DF80EE80FD800C81D4
:100F70001B81AA81B981CE0FD11D0FB6F894DEBFB7
:100F80000FBECDBFED0108952A0D3B1D4C1D5D1D0B
:100F90006E1D7F1D801F911F08950024A7FD0094E2
:100FA0002A0F301D401D501D601D701D801D901D9D
:100FB00008952A193B094C095D096E097F09800BC8
:100FC000910B08952A153B054C055D056E057F05BF
:100FD0008007910708950024A7FD00942A17300583
:100FE0004005500560057005800590050895A1E253
:100FF0001A2EAA1BBB1BFD010DC0AA1FBB1FEE1F93
:10100000FF1FA217B307E407F50720F0A21BB30BDD
:10101000E40BF50B661F771F881F991F1A9469F759
:1010200060957095809590959B01AC01BD01CF01B5
:101030000895A29FB001B39FC001A39F700D811DB1
:101040001124911DB29F700D811D1124911D0895D1
:10105000BB274A3031F4992322F4BDE29095819563
:101060009F4F01C0BB27FB015527AA27880F991F57
:10107000AA1FA41710F0A41B83955051B9F7A05DC7
:10108000AA3308F0A95DA193009779F7B111B19344
:101090001192CB0100C0DC01FC01672F7191772315
:1010A000E1F7329704C07C916D9370836291AE1723
:0A10B000BF07C8F30895F894FFCFBE
:1010BA00D00700000000000002000000000000004D
:1010CA00E803000000000000DC050000000000004A
:0C10DA00FF0300000000000020000A00DE
:00000001FF
